:100000000A128A11EE2F00308A000408840A82073F
:10001000003420342D3443346934723463347534FD
:100020006934743420344434693467346534733447
:100030007434003420342034523454344334203463
:100040007734693474346834203450344934433458
:100050000034543449344D3445343A342034003477
:0E00600044344134543445343A3420340034AE
:1000DE000A128A11852083160313111408000A12BE
:1000EE008A11852083160313111508000A128A112E
:1000FE008520831203132008930008008316031330
:10010E0011081F39031D8528141D08008528063483
:10011E0000340A34003437340034053400341234D9
:10012E00003400300A128A11CE200A128A110130D0
:10013E000A128A11CE2008007E088A007F088200EB
:10014E00A3200A128A118000840A04087D0603196E
:10015E000034FF0A0319FE0AA728F000701CBB2802
:10016E00831203130816BE28831203130812F01C01
:10017E00C2288816C3288812701DC7280817C828D9
:10018E000813F01DCC288817080088130800F30008
:10019E0083120313081173080A128A11B4200A126B
:1001AE008A118312031388151A30F200F830F10009
:1001BE00F10BDF28F20BDF280000831203138811E6
:1001CE000800F401F501701CF2287208F4070318F8
:1001DE00F50A7308F50701300310F20DF30DFF3E1B
:1001EE00031DF32801300310F10CF00CFF3E031D2C
:1001FE00FA2870087104031DEA287508F1007408C6
:10020E00F0000800FB00F901FA0179087B07840071
:10021E000A128A1103200A128A11003A03190800E1
:10022E0079087B0784000A128A1103200A128A11A8
:10023E000A128A1186230A128A110130F90703184D
:10024E00FA0A0030FA070C290F307605F800003054
:10025E007705F900760E0F39F000770EF039F004BD
:10026E00770E0F39F100F030F11D0030F1040A3035
:10027E00F2000030F3000A128A11E82078087007A5
:10028E00F60079080318790A7107F70008000A12B8
:10029E008A1185200A128A118316031391150A12E8
:1002AE008A1185200A128A11831203131308F20091
:1002BE00F3017208F4007308F5000A128A11852002
:1002CE000A128A1170087104031D71298316031313
:1002DE009116742983160313911211167508F100E5
:1002EE007408F00008000A30F0000030F1007A08BF
:1002FE00F3007908F2000A128A11CD220A128A112D
:10030E007008FB007108FC00FB0EFC0EF030FC05C3
:10031E007B080F39FC04F030FB050A30F00000308A
:10032E00F1007A08F3007908F2000A128A113122DC
:10033E0070087B07F90071080318710A7C07FA0030
:10034E0008000030FC000030FB000030FA000030E6
:10035E00F900701CC6297408F907750803110318F3
:10036E00013E031DFA07760803110318013E031D13
:10037E00FB07770803110318013E031DFC0701302C
:10038E00F8000310F40DF50DF60DF70DF80BC82956
:10039E0001300310F30CF20CF10CF00CFF3E031DB8
:1003AE00D0297308720471047004031DB0297C08EF
:1003BE00F3007B08F2007A08F1007908F0000800DB
:1003CE00F7007703031D0C2A74087F3EF5007508AD
:1003DE00FA007A08F50004300310F50CFF3E031DF9
:1003EE00F3297508F6007608F8007A080F39F5003B
:1003FE007508F90078080A128A11CE200A128A119D
:10040E0079080A128A11CE20080002307706031DE1
:10041E0008007408BF3EF5007508FA007A08F5006A
:10042E0004300310F50CFF3E031D182A7508F60064
:10043E007608F8007A080F39F5007508F900780883
:10044E000A128A11CE200A128A1179080A128A110A
:10045E00CE200800F601F31F3B2AF209F309F20A37
:10046E000319F30AF601F60AF11F422AF009F109FF
:10047E00F00A0319F10A7008710403196F2AF501C5
:10048E00F50AF11B562A01300310F00DF10DFF3E57
:10049E00031D4B2A0130F4007408F507482A710831
:1004AE007302031D5C2A70087202031C642A700812
:1004BE00F2027108031CF303F30201300310F10C76
:1004CE00F00CFF3E031D652A0130F502031D562A6E
:1004DE0076080319772AF209F309F20A0319F30AC7
:1004EE007308F1007208F0000800831603138715D5
:1004FE0007162830831203139400831603139101F9
:10050E00831203132D08B1002E08B2002F08B3007A
:10051E003008B40002300310B10DB20DB30DB40D9E
:10052E00FF3E031D922A3408F3003308F20032080E
:10053E00F1003108F0000030F7000030F600003016
:10054E00F5006430F4000A128A11A8210A128A11E9
:10055E00730883120313A3007208A2007108A1008E
:10056E007008A0000130A7003130A6002D30A50084
:10057E000030A4000A128A112623831203132008C6
:10058E00FF3E83160313930094010800F601F11F3A
:10059E00D72AF009F109F00A0319F10AF601F60A51
:1005AE00F31FE22AF209F309F20A0319F30A0130E2
:1005BE00F4007408F606F701F801700871040319C7
:1005CE00192BF501F50AF11BF82A01300310F00D75
:1005DE00F10DFF3E031DED2A0130F4007408F507FE
:1005EE00EA2A01300310F70DF80DFF3E031DF92A1C
:1005FE0071087302031D052B70087202031C0E2B6B
:10060E007008F2027108031CF303F3027714013031
:10061E000310F10CF00CFF3E031D0F2B0130F50201
:10062E00031DF82A76080319212BF709F809F70A92
:10063E000319F80A7808F1007708F0000800003076
:10064E0083120313AB000030AA000030A900003063
:10065E00A800230822042104200403197D2BAC01D9
:10066E00AC0AA31B482B0130FD000310A00DA10DF9
:10067E00A20DA30DFD0B3C2B0130FD007D08AC0738
:10068E00382B0130FD000310A80DA90DAA0DAB0DDE
:10069E00FD0B4A2B23082702031D5F2B220826027F
:1006AE00031D5F2B21082502031D5F2B200824024A
:1006BE00031C702B2008A4022108031C210FA50285
:1006CE002208031C220FA6022308031C230FA702D5
:1006DE00281401300310A30CA20CA10CA00CFF3E99
:1006EE00031D712B0130AC02031D482B2B08A300F8
:1006FE002A08A2002908A1002808A0000800F4007A
:10070E0074080F39F1007108F2007408F039F10025
:10071E007108F3008312031308157308F1000430F7
:10072E000310F10CFF3E031D972B71080A128A115C
:10073E00B4200A128A118312031388153330F50080
:10074E008230F6007608803AFF0080307F02031D6B
:10075E00B22B013075020318C62B0000FF30F507CF
:10076E000318F60AFF30F6077608803AFF0080304D
:10077E007F02031DC42B01307502031CB42B8312A0
:10078E000313881172080A128A11B4200A128A11F0
:10079E008312031388153330F7008230F80078087F
:1007AE00803AFF0080307F02031DDF2B013077027D
:1007BE000318F32B0000FF30F7070318F80AFF3079
:1007CE00F8077808803AFF0080307F02031DF12B76
:1007DE0001307702031CE12B8312031388110800EA
:1007EE0000300A128A11B4200A128A111C30F60047
:1007FE004130F7007708803AFF0080307F02031DFA
:10080E000A2C0130760203181E2C0000FF30F6076A
:10081E000318F70AFF30F7077708803AFF00803099
:10082E007F02031D1C2C01307602031C0C2C03309E
:10083E000A128A11CE200A128A112130F500763062
:10084E00F400F40B282CF50B282C000003300A12B0
:10085E008A11CE200A128A114830F5006C30F4004D
:10086E00F40B372CF50B372C000003300A128A11CB
:10087E00CE200A128A1102300A128A11CE200A12D2
:10088E008A1102300A128A11CE200A128A110830F9
:10089E000A128A11CE200A128A1100300A128A1107
:1008AE00CE200A128A110C300A128A11CE200A1298
:1008BE008A1100300A128A11CE200A128A110630CD
:1008CE000A128A11CE2008000A128A116F200A120B
:1008DE008A11D03083120313A0000030A1000A1237
:1008EE008A117D200A128A11003083120313A00090
:1008FE00A1000A128A117D200A128A118312031393
:10090E004F08FA004E08F9000A128A117A210A12CB
:10091E008A117A0883120313A1007908A0000A1223
:10092E008A117D200A128A11831203134908FA00D4
:10093E004808F9000A128A117A210A128A117A08D5
:10094E0083120313A1007908A0000A128A117D20D8
:10095E000A128A11831203134708FA004608F90097
:10096E000A128A117A210A128A117A088312031343
:10097E00A1007908A0000A128A117D200A128A119C
:10098E00013083120313A0000030A1000A128A1155
:10099E007D200A128A11831203134508FA004408B7
:1009AE00F9000A128A117A210A128A117A08831220
:1009BE000313A1007908A0000A128A117D200A12E1
:1009CE008A11831203134B08FA004A08F9000A121F
:1009DE008A117A210A128A117A0883120313A1004E
:1009EE007908A0000A128A117D200A128A11831238
:1009FE0003134D08FA004C08F9000A128A117A21E5
:100A0E000A128A117A0883120313A1007908A00032
:100A1E000A128A117D200A128A110A128A11762070
:100A2E0008000A128A116F200A128A11D03083121E
:100A3E000313A0000030A1000A128A117D200A12B1
:100A4E008A11003083120313A000A1000A128A112A
:100A5E007D200A128A110A128A1176200A128A1130
:100A6E000A128A116F200A128A11D13083120313CF
:100A7E00A0000030A1000A128A117D200A128A11EC
:100A8E000130F0000030F1000A128A114E210A12D4
:100A9E008A117108F7007008F6000A128A112B21CC
:100AAE000A128A11770883120313CF007608CE003C
:100ABE000130F0000030F1000A128A114E210A12A4
:100ACE008A117108F7007008F6000A128A112B219C
:100ADE000A128A11770883120313C9007608C80018
:100AEE000130F0000030F1000A128A114E210A1274
:100AFE008A117108F7007008F6000A128A112B216C
:100B0E000A128A11770883120313C7007608C600EB
:100B1E000130F0000030F1000A128A114E210A1243
:100B2E008A110130F0000030F1000A128A114E21B4
:100B3E000A128A117108F7007008F6000A128A115B
:100B4E002B210A128A11770883120313C500760827
:100B5E00C4000130F0000030F1000A128A114E215B
:100B6E000A128A117108F7007008F6000A128A112B
:100B7E002B210A128A11770883120313CB007608F1
:100B8E00CA000130F0000030F1000A128A114E2125
:100B9E000A128A117108F7007008F6000A128A11FB
:100BAE002B210A128A11770883120313CD007608BF
:100BBE00CC000A128A1176200A128A110A128A11A0
:100BCE006F200A128A11D13083120313A000003055
:100BDE00A1000A128A117D200A128A110130F0003A
:100BEE000030F1000A128A114E210A128A110A12DD
:100BFE008A11762008008316031388010A128A11BF
:100C0E00F7230A128A11003083120313B00000304A
:100C1E00AF000030AE006430AD000A128A117C22A3
:100C2E000A128A110A128A116B240A128A110A12E6
:100C3E008A1198200A128A11F401F40A01300A125C
:100C4E008A11E7210A128A1112300A128A11092119
:100C5E000A128A11F401F40A02300A128A11E721EB
:100C6E000A128A1101300A128A1109210A128A11F6
:100C7E00273083120313B7000D30B6004B30B5008A
:100C8E00B50B472EB60B472EB70B472E00000A1298
:100C9E008A1118250A128A110A30F0000030F1006C
:100CAE00831203134F08F3004E08F2000A128A1142
:100CBE0031220A128A11700883120313B500350807
:100CCE00B8000A30F0000030F1004F08F3004E0873
:100CDE00F2000A128A11CD220A128A1170088312AA
:100CEE000313B5003508B9000A30F0000030F100EA
:100CFE004908F3004808F2000A128A1131220A123A
:100D0E008A11700883120313B5003508BA000A3031
:100D1E00F0000030F1004908F3004808F2000A1212
:100D2E008A11CD220A128A11700883120313B5009C
:100D3E003508BB000A30F0000030F1004708F30020
:100D4E004608F2000A128A1131220A128A1170081C
:100D5E0083120313B5003508BC000A30F0000030D2
:100D6E00F1004708F3004608F2000A128A11CD225C
:100D7E000A128A11700883120313B5003508BD00DC
:100D8E000A30F0000030F1004508F3004408F2008C
:100D9E000A128A1131220A128A1170088312031361
:100DAE00B5003508BE000A30F0000030F1004508ED
:100DBE00F3004408F2000A128A11CD220A128A1197
:100DCE00700883120313B5003508BF000A30F00017
:100DDE000030F1004B08F3004A08F2000A128A11A3
:100DEE0031220A128A11700883120313B5003508D6
:100DFE00C0000A30F0000030F1004B08F3004A0842
:100E0E00F2000A128A11CD220A128A117008831278
:100E1E000313B5003508C1000A30F0000030F100B0
:100E2E004D08F3004C08F2000A128A1131220A1200
:100E3E008A11700883120313B5003508C2000A30F8
:100E4E00F0000030F1004D08F3004C08F2000A12D9
:100E5E008A11CD220A128A11700883120313B5006B
:100E6E003508C3000A128A1198200A128A11F40159
:100E7E00F40A01300A128A11E7210A128A1121306E
:100E8E000A128A1109210A128A11831203133D08CC
:100E9E00303E0A128A1186230A128A118312031314
:100EAE003C08303E0A128A1186230A128A113A3001
:100EBE000A128A1186230A128A11831203133B081F
:100ECE00303E0A128A1186230A128A1183120313E4
:100EDE003A08303E0A128A1186230A128A113A30D3
:100EEE000A128A1186230A128A11831203133908F1
:100EFE00303E0A128A1186230A128A1183120313B4
:100F0E003808303E0A128A1186230A128A11F40119
:100F1E00F40A02300A128A11E7210A128A112830C5
:100F2E000A128A1109210A128A11831203133F0829
:100F3E00303E0A128A1186230A128A118312031373
:100F4E003E08303E0A128A1186230A128A113A305E
:100F5E000A128A1186230A128A1183120313410878
:100F6E00303E0A128A1186230A128A118312031343
:100F7E004008303E0A128A1186230A128A113A302C
:100F8E000A128A1186230A128A1183120313430846
:100F9E00303E0A128A1186230A128A118312031313
:100FAE004208303E0A128A1186230A128A110D3027
:100FBE0083120313B700AF30B600C130B500B50BC6
:100FCE00E62FB60BE62FB70BE62F00004E2E83133F
:100FDE004E30FD000030FE008E30FF0044308400A5
:100FEE000A128A11A720CE01CF0183010A128A119B
:020FFE00022EC1
:02400E00723FFF
:00000001FF
