:020000040000FA
:060000000A128A11E72F2D
:100CA4006E3403348030831603139F004130831263
:100CB40003139F0083160313051485140515851566
:100CC4008701F0308312031387007808031D6B2E0D
:100CD4006C2E092F831203130716071A722E762E11
:100CE400831203138716792E831203138712871A2C
:100CF4007C2E802E831203130717832E8312031373
:100D04000713071B862E8A2E8312031387178D2E33
:100D14008312031387130330FB008A30FA00553023
:100D2400F900F90B932EFA0B932EFB0B932E9A2EAC
:100D3400C730831203139F051F151F19A22EA32E5C
:100D44009F2E2130F900F90BA52E831203131E08E0
:100D5400F700831603131E08F600831203131F08FB
:100D6400C73908389F001F151F19B92EBA2EB62E81
:100D74002130F900F90BBC2E831203131E08F50071
:100D8400831603131E08F400831203131F08C739C4
:100D940010389F001F151F19D02ED12ECD2E2130B3
:100DA400F900F90BD32E831203131E08F3008316E4
:100DB40003131E08F200831203131F08C7391838DF
:100DC4009F001F151F19E72EE82EE42E2130F9008D
:100DD400F90BEA2E831203131E08F1008316031382
:100DE4001E08F000F801F80A831203130712871291
:100DF400071387130330FB008A30FA005530F900DB
:100E0400F90B022FFA0B022FFB0B022F092F780389
:100E1400031D0D2F0E2F512F7508803AFF008330CC
:100E24007F02031D172F6E30740203181A2F1B2F15
:100E3400222F831203130710871407118711502FD1
:100E44007708803AFF0083307F02031D2B2F6E301A
:100E5400760203182E2F2F2F362F83120313071415
:100E6400871007118711502F7108803AFF008330D3
:100E74007F02031D3F2F6E3070020318422F432F51
:100E84004A2F831203130710871007118715502F59
:100E9400831203130710871007118711F80102301A
:100EA4007806031D562F572F9A2F7508803AFF0096
:100EB40083307F02031D602F6E3074020318632F8A
:100EC400642F6B2F831203130710871407118711E4
:100ED400992F7708803AFF0083307F02031D742F17
:100EE4006E3076020318772F782F7F2F8312031327
:100EF4000714871007118711992F7108803AFF0092
:100F040083307F02031D882F6E30700203188B2FED
:100F14008C2F932F83120313071087100711871543
:100F2400992F831203130710871007158711F801EF
:100F340003307806031D9F2FA02F672E7308803A75
:100F4400FF0083307F02031DA92F6E307202031845
:100F5400AC2FAD2FB42F831203130710871007157E
:100F64008711E22F7708803AFF0083307F02031D48
:100F7400BD2F6E3076020318C02FC12FC82F8312E5
:100F840003130714871007118711E22F7108803AA1
:100F9400FF0083307F02031DD12F6E3070020318CF
:100FA400D42FD52FDC2F83120313071087100711BA
:100FB4008715E22F83120313071087140711871173
:100FC400F801672E0A128A1100280A128A11522681
:100FD4000A128A11FC000A128A1153260A128A1173
:100FE400FD00F001F101F201F301F401F501F60154
:0C0FF400F701F80183010A128A11542E43
:02400E00BA1ED8
:00000001FF
