:020000040000FA
:060000000A128A1110280B
:10000800FE00030E83120313A7000A08A8007F0846
:10001800A9000A128A118C2F0A128A111328831335
:10002800C230FD000B30FE00D830FF00B63084002F
:100038000A128A11EC260A128A110A128A11FC275E
:100048000A128A11D5000A128A11FD270A128A118A
:10005800D60083160313C201C301C401C50144308D
:10006800840055300A128A158B230A128A118301DB
:100078000A128A113F288316031386018312031379
:100088008601C230831603139F00C1308312031305
:100098009F00FF30831603138500C0308800831249
:1000A80003138801FF3081008B16A83083160313D1
:1000B800810007140630831203139000FF308F006D
:1000C800FF308E00831603130C148C110B178B173B
:1000D80083120313101483160313051485140515CE
:1000E8008515003083120313BD000130BC00863033
:1000F800BB00A030BA000A128A1552250A128A11CA
:100108000A128A1163250A128A110A128A117F2695
:100118000A128A110A128A152D240A128A118316C4
:1001280003130812881283120313081288120A1282
:100138008A152D240A128A11033083160313A0008E
:10014800200883120313AE0080300A128A154A244D
:100158000A128A114D300A128A15C6250A128A1106
:10016800053083160313A000200883120313AE0082
:10017800C0300A128A154A240A128A1183120313FC
:100188004F08B6004E08B5000A128A11D5230A1284
:100198008A1185300A128A15C6250A128A11831215
:1001A80003135108B6005008B5000A128A11D52366
:1001B8000A128A1185300A128A15C6250A128A116E
:1001C800831203135308B6005208B5000A128A11A5
:1001D800D5230A128A11831203135408031DF52824
:1001E800F628192A0716071AFA28FE288312031375
:1001F80087160129831203138712871A04290829ED
:100208008312031307170B29831203130713071B02
:100218000E29122983120313871715298312031332
:100228008713033083160313A2008A30A1005530C8
:10023800A000A00B1D29A10B1D29A20B1D29C73049
:10024800831203139F05203083160313A000A00B0D
:100258002B290000831203131F151F193429352970
:1002680031291E08CD00831603131E0883120313B9
:10027800CC00A53083160313A000A00B4129442904
:10028800831203131F08C73908389F0020308316CC
:100298000313A000A00B4E290000831203131F159F
:1002A8001F195729582954291E08CB0083160313F0
:1002B8001E0883120313CA00A53083160313A00077
:1002C800A00B64296729831203131F08C739103844
:1002D8009F00203083160313A000A00B7129000093
:1002E800831203131F151F197A297B2977291E08E2
:1002F800C900831603131E0883120313C800A53010
:1003080083160313A000A00B87298A2983120313DD
:100318001F08C73918389F00203083160313A00020
:10032800A00B94290000831203131F151F199D2980
:100338009E299A291E08C700831603131E088312D4
:100348000313C600A53083160313A000A00BAA2927
:10035800AD290A128A11BF240A128A1183120313C3
:10036800CF1BB729B829CE294F08803AFF00803023
:100378007F02031DC12908304E020318C429C5296C
:10038800CE29033083160313A00020088312031319
:10039800D400192A831203134F08803AFF008030D3
:1003A8007F02031DD92908304E02031CDC29DD29F0
:1003B800F129831203134F08803AFF0080307F022F
:1003C800031DE8290C304E020318EB29EC29F1290A
:1003D80083120313D401D40A192A831203134F0872
:1003E800803AFF0080307F02031DFC2912304E0244
:1003F8000318FF29002A092A023083160313A000D4
:10040800200883120313D400192A831203134F08F8
:10041800803AFF0080307F02031D142A17304E02F5
:100428000318172A182A192AC52964004130831687
:100438000313A100ED30A000A00B202AA10B202A55
:10044800252A831203135403031D2B2A2C2A732AEB
:100458004B08803AFF0083307F02031D352A98300D
:100468004A020318382A392A402A8312031308102B
:10047800881408118811722A831203134D08803AD0
:10048800FF0083307F02031D4B2A98304C0203186B
:100498004E2A4F2A562A831203130814881008116B
:1004A8008811722A831203134708803AFF008330A9
:1004B8007F02031D612A983046020318642A652AC0
:1004C8006C2A831203130810881008118815722AE1
:1004D800831203130810881008158811D4010230FC
:1004E8005406031D782A792AC02A4B08803AFF004F
:1004F80083307F02031D822A98304A020318852A16
:10050800862A8D2A8312031308108814081188116B
:10051800BF2A831203134D08803AFF0083307F02FD
:10052800031D982A98304C0203189B2A9C2AA32A58
:10053800831203130814881008118811BF2A831224
:1005480003134708803AFF0083307F02031DAE2A59
:10055800983046020318B12AB22AB92A8312031323
:100568000810881008118815BF2A83120313081071
:10057800881008158811D40103305406031DC52AB4
:10058800C62A0D2B4908803AFF0083307F02031DDD
:10059800CF2A983048020318D22AD32ADA2A83129B
:1005A800031308108810081588110C2B83120313E5
:1005B8004D08803AFF0083307F02031DE52A9830FA
:1005C8004C020318E82AE92AF02A831203130814B4
:1005D8008810081188110C2B831203134708803ADE
:1005E800FF0083307F02031DFB2A98304602031860
:1005F800FE2AFF2A062B83120313081088100811FD
:1006080088150C2B831203130810881408118811FD
:10061800D4010A128A11BF240A128A118312031301
:10062800AE0194300A128A154A240A128A1103105C
:10063800831203138819031400300318013083163A
:100648000313A000A10101302005A20000302105FC
:10065800A3000310A20DA30D0310A20DA30D0310F8
:10066800A20DA30D031083120313081903140030FD
:100678000318013083160313A400A50101302405D3
:10068800A60000302505A7000310A60DA70D03102E
:10069800A60DA70D03108312031388180314003046
:1006A8000318013083160313A800A9010130280597
:1006B800AA0000302905AB000310AA0DAB0D0310EA
:1006C800831203130818031400300318013083162B
:1006D8000313AC00AD0101302C05AE0000302D0530
:1006E800AF002A082E04B0002B082F04B1002608FA
:1006F8003004B20027083104B30022083204B400E1
:1007080023083304B500340883120313C200831688
:100718000313350883120313C300BC2B5C300A1281
:100728008A15C6250A128A11B42863300A128A1556
:10073800C6250A128A11B42871300A128A15C625EC
:100748000A128A11B42878300A128A15C6250A12A4
:100758008A11B4286A300A128A15C6250A128A1123
:10076800B4287F300A128A15C6250A128A11B428BD
:100778004308003A0319C12BB52B4208003A031964
:10078800922B013A0319992B033A0319A02B063A25
:100798000319A72B0C3A0319AE2BB52B0A128A1191
:1007A8001028831203133608803AFF0080307F0236
:1007B800031DE02B64303502031CE32BE42B672C6C
:1007C800643083120313AC000030AD003608AF006C
:1007D8003508AE000A128A1597270A128A11831261
:1007E80003132C08303EB7003708B8006430AC005B
:1007F8000030AD003608AF003508AE000A128A1581
:1008080097270A128A11831203132D08BE002C0899
:10081800BD003E08AD003D08AC006430AE000030BD
:10082800AF000A128A156E240A128A118312031362
:100838002D08BE002C08BD003D083502B5003E0855
:10084800031C3E0A3602B6000A30AC000030AD0088
:100858003608AF003508AE000A128A1597270A1223
:100868008A11831203132C08303EB7003708B900E9
:100878000A30AC000030AD003608AF003508AE00D5
:100888000A128A156D260A128A11831203132C087C
:10089800303EB7003708BA0038080A128A1595247E
:1008A8000A128A118312031339080A128A15952429
:1008B8000A128A11831203133A080A128A15952418
:1008C8000A128A11BE2C831203133608803AFF00DD
:1008D80080307F02031D722C0A303502031C752CF0
:1008E800762CAF2C0A3083120313AC000030AD0015
:1008F8003608AF003508AE000A128A1597270A1283
:100908008A11831203132C08303EB7003708BB0046
:100918000A30AC000030AD003608AF003508AE0034
:100928000A128A156D260A128A11831203132C08DB
:10093800303EB7003708BC003B080A128A159524D8
:100948000A128A11831203133C080A128A15952485
:100958000A128A11BE2C30300A128A1595240A12FE
:100968008A11831203133508303E0A128A1595241A
:100978000A128A1108000A128A15A5230A128A1176
:10098800D03083120313BB000030BC000A128A1552
:100998000D240A128A11003083120313BB00BC0015
:1009A8000A128A150D240A128A110A128A15B72307
:1009B8000A128A11D13083120313BB000030BC0025
:1009C8000A128A150D240A128A11003083120313A1
:1009D800AC00AD000A128A15ED240A128A1183129E
:1009E80003132D08B3002C08B2000A128A15C0247C
:1009F8000A128A11831203133308D3003208D20073
:100A08000030AC00AD000A128A15ED240A128A11D2
:100A1800831203132D08B3002C08B2000A128A159A
:100A2800C0240A128A11831203133308D100320832
:100A3800D0000030AC00AD000A128A15ED240A126D
:100A48008A11831203132D08B3002C08B2000A126E
:100A58008A15C0240A128A11831203133308CF009F
:100A68003208CE000030AC00AD000A128A15ED2421
:100A78000A128A11003083120313AC00AD000A1267
:100A88008A15ED240A128A11003083120313AC0070
:100A9800AD000A128A15ED240A128A110130831258
:100AA8000313AC000030AD000A128A15ED240A12B7
:100AB8008A110A128A15AE230A128A1108000A122C
:100AC8008A15A5230A128A11D03083120313BB009A
:100AD8000030BC000A128A150D240A128A1100304F
:100AE80083120313BB00BC000A128A150D240A12D4
:100AF8008A11831203135308B6005208B5000A126C
:100B08008A158C250A128A11831203133608BC0031
:100B18003508BB000A128A150D240A128A1183129D
:100B280003135108B6005008B5000A128A158C251F
:100B38000A128A11831203133608BC003508BB0059
:100B48000A128A150D240A128A11831203134F08F8
:100B5800B6004E08B5000A128A158C250A128A11A9
:100B6800831203133608BC003508BB000A128A1525
:100B78000D240A128A11013083120313BB000030BE
:100B8800BC000A128A150D240A128A110130831238
:100B98000313BB000030BC000A128A150D240A1288
:100BA8008A11013083120313BB000030BC000A1203
:100BB8008A150D240A128A11013083120313BB000F
:100BC8000030BC000A128A150D240A128A110A1272
:100BD8008A15AE230A128A1108000A128A1593236D
:100BE8000A128A11D03083120313A2000030A30026
:100BF8000A128A15FE230A128A110030831203137F
:100C0800A200A3000A128A15FE230A128A1183126F
:100C180003135308FA005208F9000A128A151C2512
:100C28000A128A117A0883120313A3007908A20012
:100C38000A128A15FE230A128A1183120313510815
:100C4800FA005008F9000A128A151C250A128A119E
:100C58007A0883120313A3007908A2000A128A15DE
:100C6800FE230A128A11831203134F08FA004E0852
:100C7800F9000A128A151C250A128A117A088312A9
:100C88000313A3007908A2000A128A15FE230A1288
:100C98008A11013083120313A2000030A3000A1244
:100CA8008A15FE230A128A11013083120313A20047
:100CB8000030A3000A128A15FE230A128A11013095
:100CC80083120313A2000030A3000A128A15FE2320
:100CD8000A128A11013083120313A2000030A30004
:100CE8000A128A15FE230A128A110A128A159C23EF
:100CF8000A128A11080083160313061283120313BB
:100D08008612033086000A128A151C240A128A11D8
:100D18000A128A15CC230A128A110230831203138D
:100D280086000A128A151C240A128A110A128A15C8
:100D3800CC230A128A1102308312031386000A1286
:100D48008A151C240A128A110A128A15CC230A123F
:100D58008A1108308312031386000A128A151C248C
:100D68000A128A110A128A15CC230A128A118312CE
:100D7800031386010A128A151C240A128A110C30E0
:100D88008312031386000A128A151C240A128A1178
:100D98000A128A15CC230A128A11831203138601B8
:100DA8000A128A151C240A128A11063083120313A8
:100DB80086000A128A151C240A128A110A128A1538
:100DC800CC230A128A1108007E088A007F08820054
:100DD8000A128A11E8260A128A118000840A040875
:0E0DE8007D0603190034FF0A0319FE0AEC2EE3
:100E000007308A000408840A820700340034003462
:100E100080343F341834723431343F34F034FD348C
:100E200075343E344734583463343D345834953443
:100E30001D343C348234C434AE343A34A83478346B
:100E400021343934EF34933480343734A03492343D
:100E5000A734353446345634153434340034003431
:100E600000340034C434FF347F343F348034EF34F2
:100E7000FF34BE349034E134A9343E34EC3482344F
:100E80007634BE348234AD342B343E340E343C34AC
:100E9000C334BD348734D13413343D3441347834D1
:100EA000D334BB3450344834413453344534203483
:100EB000533445344C344534433454344F34523431
:100EC00000344E3455344C344C3420342034003407
:100ED000773469346E346434203420340034703410
:100EE000683463346E3420342034003473346F3407
:100EF0006C346134723420340034623469346F34B9
:100F000067346134733400345234453453344534D7
:100F1000543400343A3400348816033083120313F7
:100F2000A6008A30A5005530A400A40B952FA50B70
:100F3000952FA60B952F0B1D9E2F9F2FC12F831230
:100F400003134F08AB004E08AA004F08803AFF0079
:100F500080307F02031DAE2F17304E020318B12FD1
:100F6000B22FBD2F831203132A08013ECE002B0897
:100F70000318013E003ECF00C12F83120313CE01A0
:100F8000CF01831203130C1CC62FC72FE12F51086A
:100F9000803AFF0080307F02031DD02F3B3050028B
:100FA0000318D32FD42FDD2F013083120313D00762
:100FB0000318D10A0030D107E12F83120313D001A7
:100FC000D1010B110C10FF308100FF308F00FF307A
:100FD0008E0064000A128A11F1250A128A11640037
:100FE0008312031388122908FF0028088A00270E9D
:0C0FF0008300FE0E7E0E090098340334CE
:1017160064008001840A04060319003404068C2B35
:101726000A128A15E4230A128A1583160313111462
:1017360008000A128A15E4230A128A15831603136F
:10174600111508000A128A15F1230A128A15831642
:101756000313111408000A128A15F1230A128A15B6
:1017660083160313111508000A128A15F1230A12AB
:101776008A1583160313911408002130831203136C
:10178600AD007530AC00AC0BC62BAD0BC62BCB2B0E
:101796000800213083120313AD007530AC00AC0B8A
:1017A600D22BAD0BD22BD72B080045344C34453405
:1017B6004334543452344F344E344934433453341E
:1017C60000348316031311081F39031DEB2BEC2B72
:1017D600E42B1419EF2BF02BE42B080083160313CC
:1017E60011081F39031DF82BF92BF12B1419FC2BAB
:1017F600FD2BF12B08000A128A15E4230A128A151A
:1018060083120313220893000A128A15E4230A128C
:101816008A1508000A128A15F1230A128A158312FC
:1018260003133B0893000A128A15F1230A128A153C
:1018360008008312031306170A128A15C0230A1218
:101846008A158312031306130A128A15C0230A1275
:101856008A15080083120313061306120608F039C8
:1018660086000A128A151C240A128A15831203138B
:101876000608F039013886000A128A151C240A1255
:101886008A150A128A15CC230A128A1508008312B1
:101896000313B1000613061231082E07AF00B0017C
:1018A600B00D0430FF00300DB00CAF0CFF0B562C02
:1018B6002F0886000A128A151C240A128A1583121A
:1018C60003132E0831070F3986000A128A151C24C5
:1018D6000A128A15080083120313B001B1012C1CE9
:1018E600752C762C7C2C2E08B0070318B10A2F080D
:1018F600B10701300310AE0DAF0DFF3E031D7D2C69
:1019060001300310AD0CAC0CFF3E031D842C2C08DB
:101916002D04031D8F2C902C722C3108AD0030083D
:10192600AC00080083120313B2003208AE00043084
:101936000310AE0CFF3E031D9B2C2E080F39AF0083
:101946002F08B00032080F39AE002E08B100061677
:101956000608F039300486000A128A151C240A1279
:101966008A15831203130608F039310486000A1219
:101976008A151C240A128A1508000F3083120313D5
:101986003205B40000303305B500320E0F39AC0015
:10199600330EF039AC04330E0F39AD00F030AD1D07
:1019A6000030AD040A30AE000030AF000A128A15CE
:1019B6006E240A128A158312031334082C07B60004
:1019C60035080318350A2D07B7003708B30036085F
:1019D600B20008000A128A15F1230A128A15831624
:1019E600031391150A128A15F1230A128A15831216
:1019F60003131308AE00AF012E08B0002F08B10084
:101A06000A128A15F1230A128A15831203132C1857
:101A16000D2D112D831603139116142D8316031302
:101A260091121116831203133108AD003008AC0071
:101A360008000A30F0000030F1007A08F300790857
:101A4600F2000A128A15C8260A128A157008FB00C7
:101A56007108FC00FB0EFC0EF030FC057B080F390C
:101A6600FC04F030FB050A30F0000030F1007A0883
:101A7600F3007908F2000A128A1514260A128A154A
:101A860070087B0783120313A00071080318710AFC
:101A96007C07A1002108FA002008F9000800283078
:101AA6008312031394008316031391019401831286
:101AB60003133A08BE003B08BF003C08C0003D08BF
:101AC600C10002300310BE0DBF0DC00DC10DFF3E9B
:101AD600031D652D4108AF004008AE003F08AD006C
:101AE6003E08AC000130B3003130B2002D30B100F9
:101AF6000030B0000A128A152F270A128A1583129F
:101B060003132C08FF3E831603139300871507164D
:101B160008000A3083120313AC000030AD0036080B
:101B2600AF003508AE000A128A1597270A128A15E1
:101B3600831203132C08B7002D08B800B70EB80E91
:101B4600F030B80537080F39B804F030B7050A3059
:101B5600AC000030AD003608AF003508AE000A1202
:101B66008A156D260A128A15831203132C08370765
:101B7600B9002D0803182D0A3807BA003A08B6002E
:101B86003908B500080083120313B300B201062E0C
:101B96003208330784000A128A1100270A128A15AE
:101BA600AE0004300310AE0CFF3E031DD52D2E08EB
:101BB6000F39AF002F08B1003208330784000A122C
:101BC6008A1100270A128A150F39AE002E08B000B6
:101BD60006160608F039310486000A128A151C24F6
:101BE6000A128A15831203130608F0393004860098
:101BF6000A128A151C240A128A150130831203134D
:101C0600AE002E08B2073208330784000A128A1182
:101C160000270A128A15003A031D122E132ECB2D09
:101C26000800F601F31F182E192E202EF209F309CB
:101C3600F20A0319F30AF601F60AF11F232E242EDF
:101C4600292EF009F109F00A0319F10A7008710446
:101C560003192E2E2F2E5E2EF501F50A3D2E01308C
:101C66000310F00DF10DFF3E031D332E0130F4007D
:101C76007408F507F11F402E412E322E71087302AB
:101C8600031D472E70087202031C4A2E4B2E512E3E
:101C96007008F2027108031CF303F302013003100B
:101CA600F10CF00CFF3E031D522E0130F502031D10
:101CB6005D2E5E2E412E76080319622E632E682E47
:101CC600F209F309F20A0319F30A7308F10072081C
:101CD600F000080083120313B201AF1F732E742E97
:101CE6007B2EAE09AF09AE0A0319AF0AB201B20ADA
:101CF600AD1F7E2E7F2E842EAC09AD09AC0A0319CA
:101D0600AD0A2C082D040319892E8A2EB92EB1018D
:101D1600B10A982E01300310AC0DAD0DFF3E031D28
:101D26008E2E0130B0003008B107AD1F9B2E9C2EC1
:101D36008D2E2D082F02031DA22E2C082E02031C09
:101D4600A52EA62EAC2E2C08AE022D08031CAF0322
:101D5600AF0201300310AD0CAC0CFF3E031DAD2EDF
:101D66000130B102031DB82EB92E9C2E320803197C
:101D7600BD2EBE2EC32EAE09AF09AE0A0319AF0A99
:101D86002F08AD002E08AC000800F601F11FCC2E7E
:101D9600CD2ED42EF009F109F00A0319F10AF60145
:101DA600F60AF31FD72ED82EE12EF209F309F20A0E
:101DB6000319F30A0130F4007408F606F701F80176
:101DC600700871040319E82EE92E202FF501F50A93
:101DD600F72E01300310F00DF10DFF3E031DED2E21
:101DE6000130F4007408F507F11FFA2EFB2EEC2ED5
:101DF60001300310F70DF80DFF3E031DFC2E710890
:101E06007302031D082F70087202031C0B2F0C2F80
:101E1600132F7008F2027108031CF303F302771400
:101E260001300310F10CF00CFF3E031D142F01309E
:101E3600F502031D1F2F202FFB2E76080319242FD2
:101E4600252F2A2FF709F809F70A0319F80A78083F
:101E5600F1007708F0000800003083120313B80081
:101E66000030B7000030B6000030B5002F082E0451
:101E76002D042C040319402F412F8E2FB901B90AC6
:101E8600512F0130B4000310AC0DAD0DAE0DAF0DEA
:101E9600B40B462F0130B4003408B907AF1F542FD6
:101EA600552F442F0130B4000310B50DB60DB70DF4
:101EB600B80DB40B572F2F083302031D6C2F2E08B5
:101EC6003202031D6C2F2D083102031D6C2F2C08C6
:101ED6003002031C6F2F702F7F2F2C08B0022D08A5
:101EE600031C2D0FB1022E08031C2E0FB2022F0861
:101EF600031C2F0FB302351401300310AF0CAE0CC8
:101F0600AD0CAC0CFF3E031D802F0130B902031D42
:101F16008D2F8E2F552F3808AF003708AE003608A4
:101F2600AD003508AC00080083120313B201AD1FE3
:101F36009D2F9E2FA52FAC09AD09AC0A0319AD0A3A
:101F4600B201B20AAF1FA82FA92FB22FAE09AF094F
:101F5600AE0A0319AF0A0130B0003008B206B30169
:101F6600B4012C082D040319B92FBA2FF12FB10192
:101F7600B10AC82F01300310AC0DAD0DFF3E031D95
:101F8600BE2F0130B0003008B107AD1FCB2FCC2FCC
:101F9600BD2F01300310B30DB40DFF3E031DCD2F31
:101FA6002D082F02031DD92F2C082E02031CDC2F0F
:101FB600DD2FE42F2C08AE022D08031CAF03AF0261
:101FC600331401300310AD0CAC0CFF3E031DE52F9E
:101FD6000130B102031DF02FF12FCC2F3208031967
:101FE600F52FF62FFB2FB309B409B30A0319B40A68
:0A1FF6003408AD003308AC00080009
:02400E003A3F37
:00000001FF
