:020000040000FA
:060000000A128A1110280B
:10000800FE00030E83120313A2000A08A3007F0850
:10001800A4000A128A11AD2D0A128A11132883131B
:100028006B30FD000F30FE008D30FF005D30840026
:100038000A128A15B0270A128A11483084005D30E6
:100048000A128A151B270A128A1183010A128A11B9
:100058002D28831603138601831203138601FF30AC
:1000680083160313850080309F00413083120313E9
:100078009F00C0308316031388008312031388017E
:100088000030C3000130C2008630C100A030C0007B
:100098000A128A115F260A128A11FF30831203138B
:1000A80081008B16A83083160313810007140630CD
:1000B800831203139000FF308F00FF308E008316E9
:1000C80003130C140B178B178312031310148316C6
:1000D800031305148514051585150A128A11E524DC
:1000E8000A128A110A128A15BF270A128A110430C5
:1000F80083160313A000200883120313A70080307F
:100108000A128A15DC270A128A114D300A128A113E
:10011800B2260A128A11831203135C08031D95285C
:100128009628B1290716071A9A289E2883120313BE
:100138008716A128831203138712871AA428A828D0
:10014800831203130717AB28831203130713071B24
:10015800AE28B228831203138717B5288312031316
:100168008713033083160313A2008A30A100553089
:10017800A000A00BBD28A10BBD28A20BBD28C7302D
:10018800831203139F051F151F19CB28CC28C828D5
:10019800203083160313A000A00BD0280000831280
:1001A80003131E08D500831603131E0883120313B6
:1001B800D4001F08C73908389F001F151F19E528E4
:1001C800E628E228203083160313A000A00BEA28B3
:1001D8000000831203131E08D300831603131E089E
:1001E80083120313D2001F08C73910389F001F1548
:1001F8001F19FF280029FC28203083160313A000AC
:10020800A00B04290000831203131E08D1008316D3
:1002180003131E0883120313D0001F08C7391838A8
:100228009F001F151F1919291A291629203083160E
:100238000313A000A00B1E290000831203131E083D
:10024800CF00831603131E0883120313CE000A126D
:100258008A11B9220A128A1183120313A701C03026
:100268000A128A15DC270A128A115C300A128A11CE
:10027800B2260A128A11831203135708803AFF0024
:1002880080307F02031D4A2901305602031C4D2984
:100298004E296629831203135708803AFF008030DD
:1002A8007F02031D59290830560203185C295D296D
:1002B8006629033083160313A00020088312031352
:1002C800DC00B129831203135708803AFF008030FD
:1002D8007F02031D712908305602031C74297529F1
:1002E8008929831203135708803AFF0080307F0260
:1002F800031D80290C305602031883298429892973
:1003080083120313DC01DC0AB12983120313570893
:10031800803AFF0080307F02031D94291230560274
:10032800031897299829A129023083160313A000DE
:10033800200883120313DC00B12983120313570822
:10034800803AFF0080307F02031DAC291730560227
:100358000318AF29B029B1295D296400831203135A
:100368000816413083160313A100ED30A000A00B3E
:10037800BB29A10BBB29C029831203135C03031DEE
:10038800C629C7290E2A5308803AFF0083307F0206
:10039800031DD0296E3052020318D329D429DB2932
:1003A8008312031308108814081188110D2A831268
:1003B80003135508803AFF0083307F02031DE629A6
:1003C8006E3054020318E929EA29F129831203132C
:1003D80008148810081188110D2A831203134F0876
:1003E800803AFF0083307F02031DFC296E304E02E5
:1003F8000318FF29002A072A8312031308108810FC
:10040800081188150D2A8312031308108810081183
:100418008811DC0102305C06031D132A142A5B2AAA
:100428005308803AFF0083307F02031D1D2A6E3077
:1004380052020318202A212A282A8312031308109B
:100448008814081188115A2A831203135508803A10
:10045800FF0083307F02031D332A6E3054020318D5
:10046800362A372A3E2A83120313081488100811E3
:1004780088115A2A831203134F08803AFF008330E9
:100488007F02031D492A6E304E0203184C2A4D2A5A
:10049800542A8312031308108810081188155A2A41
:1004A800831203130810881008158811DC01033023
:1004B8005C06031D602A612AA82A5108803AFF00B9
:1004C80083307F02031D6A2A6E30500203186D2A9A
:1004D8006E2A752A831203130810881008158811CC
:1004E800A72A831203135508803AFF0083307F023E
:1004F800031D802A6E3054020318832A842A8B2A0B
:10050800831203130814881008118811A72A83126C
:1005180003134F08803AFF0083307F02031D962A99
:100528006E304E020318992A9A2AA12A83120313BD
:100538000810881008118815A72A831203130810B9
:10054800881408118811DC0108124130831603133E
:10055800A100ED30A000A00BAF2AA10BAF2AB42A4E
:1005680064008F280A128A1110280A128A15352762
:100578000A128A11D03083120313A5000030A60096
:100588000A128A1551270A128A110030831203139E
:10059800A500A6000A128A1551270A128A110A1202
:1005A8008A153E270A128A110A128A1535270A1255
:1005B8008A11D13083120313A5000030A6000A1255
:1005C8008A1551270A128A11013083120313A500D4
:1005D8000030A6000A128A1148270A128A118312CB
:1005E80003132608AC002508AB000A128A11A927B4
:1005F8000A128A11831203132C08DB002B08DA0075
:100608000130A5000030A6000A128A1148270A12F4
:100618008A11831203132608AC002508AB000A12BE
:100628008A11A9270A128A11831203132C08D900E8
:100638002B08D8000130A5000030A6000A128A1144
:1006480048270A128A11831203132608AC002508CA
:10065800AB000A128A11A9270A128A1183120313FE
:100668002C08D7002B08D6000130A5000030A600C2
:100678000A128A1148270A128A11013083120313B9
:10068800A5000030A6000A128A1148270A128A110A
:10069800013083120313A5000030A6000A128A1144
:1006A80048270A128A11013083120313A50000306B
:1006B800A6000A128A1148270A128A110A128A15F4
:1006C8003E270A128A110A128A1535270A128A1138
:1006D800D13083120313A5000030A6000A128A1530
:1006E80051270A128A11013083120313A500003022
:1006F800A6000A128A1148270A128A110A128A15B4
:100708003E270A128A1108000A128A1523270A129C
:100718008A11D03083120313A0000030A1000A12FE
:100728008A1547270A128A11003083120313A00082
:10073800A1000A128A1547270A128A118312031385
:100748005B08FA005A08F9000A128A1179270A1276
:100758008A117A0883120313A1007908A0000A12EB
:100768008A1547270A128A11831203135908FA00B7
:100778005808F9000A128A1179270A128A117A0888
:1007880083120313A1007908A0000A128A154727CB
:100798000A128A11831203135708FA005608F9003F
:1007A8000A128A1179270A128A117A088312031306
:1007B800A1007908A0000A128A1547270A128A118F
:1007C800013083120313A0000030A1000A128A1519
:1007D80047270A128A11013083120313A000003040
:1007E800A1000A128A1547270A128A1101308312BA
:1007F8000313A0000030A1000A128A1547270A1225
:100808008A11013083120313A0000030A1000A12DC
:100818008A1547270A128A110A128A152C270A12E2
:100828008A110800003083120313BE000030BD0097
:100838000030BC000030BB003508340433043204F7
:100848000319272C282C752CBF01BF0A382C01301E
:10085800BA000310B20DB30DB40DB50DBA0B2D2CA3
:100868000130BA003A08BF07B51F3B2C3C2C2B2C93
:100878000130BA000310BB0DBC0DBD0DBE0DBA0B87
:100888003E2C35083902031D532C34083802031D49
:10089800532C33083702031D532C32083602031C2D
:1008A800562C572C662C3208B6023308031C330F1B
:1008B800B7023408031C340FB8023508031C350F7F
:1008C800B9023B1401300310B50CB40CB30CB20CD4
:1008D800FF3E031D672C0130BF02031D742C752CCD
:1008E8003C2C3E08B5003D08B4003C08B3003B086A
:1008F800B2000800F601F11F822C832C8A2CF00923
:10090800F109F00A0319F10AF601F60AF31F8D2C12
:100918008E2C972CF209F309F20A0319F30A013015
:10092800F4007408F606F701F80170087104031959
:100938009E2C9F2CD62CF501F50AAD2C0130031006
:10094800F00DF10DFF3E031DA32C0130F4007408D7
:10095800F507F11FB02CB12CA22C01300310F70DB4
:10096800F80DFF3E031DB22C71087302031DBE2C47
:1009780070087202031CC12CC22CC92C7008F20228
:100988007108031CF303F302771401300310F10C10
:10099800F00CFF3E031DCA2C0130F502031DD52CB7
:1009A800D62CB12C76080319DA2CDB2CE02CF709AD
:1009B800F809F70A0319F80A7808F1007708F0002F
:1009C800080003308312031386000A128A159B2736
:1009D8000A128A110A128A1567270A128A11023026
:1009E8008312031386000A128A159B270A128A119A
:1009F8000A128A1567270A128A1102308312031312
:100A080086000A128A159B270A128A110A128A1569
:100A180067270A128A1108308312031386000A1204
:100A28008A159B270A128A110A128A1567270A1241
:100A38008A118312031386010A128A159B270A1248
:100A48008A110F308312031386000A128A159B2716
:100A58000A128A110A128A1567270A128A11831242
:100A6800031386010A128A159B270A128A11063077
:100A78008312031386000A128A159B270A128A1109
:100A88000A128A1567270A128A11080005308A0097
:100A98000408840A820700340034003480343F3468
:100AA8001834723431343F34F034FD3475343E3404
:100AB8004734583463343D34583495341D343C3409
:100AC8008234C434AE343A34A834783421343934D6
:100AD800EF34933480343734A0349234A734353427
:100AE8004634563415343434003400340034003479
:100AF800C434FF347F343F348034EF34FF34BE34A1
:100B08009034E134A9343E34EC3482347634BE3443
:100B18008234AD342B343E340E343C34C334BD34CB
:100B28008734D13413343D3441347834D334BB342E
:100B380050344F34573445345234203453344534C8
:100B48004C344534433454344F34523400343A34FA
:100B58000034881608120B1DB22DB32DCD2D570861
:100B6800803AFF0080307F02031DBC2D17305602EB
:100B78000318BF2DC02DC92D013083120313D607CA
:100B88000318D70A0030D707CD2D83120313D601D7
:100B9800D7010C1CD02DD12DEB2D5908803AFF0020
:100BA80080307F02031DDA2D173058020318DD2D1F
:100BB800DE2DE72D013083120313D8070318D90A55
:100BC8000030D907EB2D83120313D801D9010B117B
:100BD8000C10FF308100FF308F00FF308E00640062
:100BE8000A128A1188230A128A11640083120313D5
:100BF80088122408FF0023088A00220E8300FE0EB4
:100C08007E0E0900F601F31F0A2E0B2E122EF20992
:100C1800F309F20A0319F30AF601F60AF11F152E71
:100C2800162E1B2EF009F109F00A0319F10A7008B3
:100C380071040319202E212E502EF501F50A2F2EAE
:100C480001300310F00DF10DFF3E031D252E01307C
:100C5800F4007408F507F11F322E332E242E710884
:100C68007302031D392E70087202031C3C2E3D2EA0
:100C7800432E7008F2027108031CF303F3020130DB
:100C88000310F10CF00CFF3E031D442E0130F50259
:100C9800031D4F2E502E332E76080319542E552E31
:100CA8005A2EF209F309F20A0319F30A7308F1003C
:100CB8007208F000080083160313871507162830FA
:100CC80083120313940083160313910183120313F1
:100CD8004008C4004108C5004208C6004308C700D0
:100CE80002300310C40DC50DC60DC70DFF3E031D10
:100CF800752E4708A8004608A7004508A60044081E
:100D0800A5000030AC000030AB000030AA00643011
:100D1800A9000A128A1100270A128A1183120313E2
:100D28002808B5002708B4002608B3002508B20033
:100D38000130B9003130B8002D30B7000030B600AE
:100D48000A128A1116240A128A118312031332080E
:100D5800FF3E8316031393009401080083120313C4
:100D6800AC00AB01F22E2B082C0784000A128A1162
:100D78004A250A128A11A70004300310A70CFF3E67
:100D8800031DC12E27080F39A8002808AA002B0820
:100D98002C0784000A128A114A250A128A110F396F
:100DA800A7002708A90006160608F0392A048600B5
:100DB8000A128A159B270A128A118312031306083E
:100DC800F039290486000A128A159B270A128A110B
:100DD800013083120313A7002708AB072B082C0741
:100DE80084000A128A114A250A128A11003A031D40
:100DF800FE2EFF2EB72E0800003083120313B10019
:100E08000030B0000030AF000030AE00251C0D2FC0
:100E18000E2F252F2908AE072A0803110318013EB3
:100E28000319172FAF072B0803110318013E0319E5
:100E38001E2FB0072C0803110318013E0319252F94
:100E4800B1070130AD000310A90DAA0DAB0DAC0D13
:100E5800AD0B272F01300310A80CA70CA60CA50C6E
:100E6800FF3E031D2F2F2808270426042504031DF1
:100E78003E2F3F2F0A2F3108A8003008A7002F085F
:100E8800A6002E08A50008000A128A1580270A1253
:100E98008A118316031391150A128A1580270A12DC
:100EA8008A11831203131308A700A8012708A900B1
:100EB8002808AA000A128A1580270A128A118312A2
:100EC80003132508260403196A2F6E2F83160313AC
:100ED8009116712F8316031391121116831203139F
:100EE8002A08A6002908A50008000A30F0000030EA
:100EF800F1007A08F3007908F2000A128A117E24B8
:100F08000A128A117008FB007108FC00FB0EFC0E27
:100F1800F030FC057B080F39FC04F030FB050A3083
:100F2800F0000030F1007A08F3007908F2000A12A4
:100F38008A1106260A128A1170087B07F9007108BF
:100F48000318710A7C07FA0008000F308312031394
:100F58002B05AD0000302C05AE002B0E0F39A50077
:100F68002C0EF039A5042C0E0F39A600F030A61D62
:100F78000030A6040A30A7000030A8000A128A111F
:100F8800D2270A128A11831203132D082507AB00F2
:100F98002E0803182E0A2607AC0008008312031334
:100FA800A901AA01251CD92FDA2FE02F2708A907A4
:100FB8000318AA0A2808AA0701300310A70DA80DCC
:100FC800FF3E031DE12F01300310A60CA50CFF3EC8
:100FD800031DE82F25082604031DF32FF42FD62F11
:0A0FE8002A08A6002908A500080049
:101E360064008001840A04060319003404061C2F7A
:101E46000A128A1573270A128A15831603131114A8
:101E560008000A128A1573270A128A1583160313B5
:101E6600111508000A128A1580270A128A15831688
:101E76000313111408000A128A1580270A128A15FC
:101E860083160313111508000A128A1573270A12FE
:101E96008A15831203132008930008000A128A1574
:101EA60080270A128A158312031325089300080057
:101EB600213083120313A6007530A500A50B612FF0
:101EC600A60B612F662F0800213083120313A6008C
:101ED6007530A500A50B6D2FA60B6D2F722F080070
:101EE6008316031311081F39031D7A2F7B2F732FB7
:101EF60014197E2F7F2F732F0800831603131108E2
:101F06001F39031D872F882F802F14198B2F8C2F95
:101F1600802F080045344C3445344334543452340D
:101F26004F344E3449344334533400346E3403341E
:101F36008312031386160A128A155B270A128A155C
:101F46008312031386120A128A155B270A128A1550
:101F560008007E088A007F0882000A128A15AC27CC
:101F66000A128A158000840A04087D0603190034C3
:101F7600FF0A0319FE0AB02F8312031386120612F4
:101F86000608F03986000A128A159B270A128A1556
:101F9600831203130608F039013886000A128A15DF
:101FA6009B270A128A150A128A1567270A128A15AA
:101FB600080083120313AA00861206122A082707AE
:101FC600A800A901A90D0430FF00290DA90CA80C31
:101FD600FF0BE82F280886000A128A159B270A128B
:101FE6008A158312031327082A070F3986000A1257
:0A1FF6008A159B270A128A150800BD
:02400E00BA1ED8
:00000001FF
