:020000040000FA
:060000000A128A1110280B
:10000800FE00030E83120313A4000A08A5007F084C
:10001800A6000A128A115A2F0A128A11132883136A
:100028005230FD000D30FE00F030FF0040308400FB
:100038000A128A1506260A128A1152308400633081
:100048000A128A155A250A128A1183010A128A117C
:100058002D28831603138601831203138601FF30AC
:1000680083160313850080309F00413083120313E9
:100078009F00C0308316031388008312031388017E
:10008800FF3081008B16A8308316031381000714F4
:100098000630831203139000FF308F00FF308E006C
:1000A800831603130C148C110B178B17831203136D
:1000B80010148316031305148514051585150030CF
:1000C80083120313B8000130B7008630B600A030A1
:1000D800B5000A128A153A270A128A110A128A11D9
:1000E80086230A128A110A128A11A2240A128A1174
:1000F8000A128A1515260A128A1183160313081282
:10010800881283120313081288120A128A151526F8
:100118000A128A11033083120313BD003D08A90097
:1001280080300A128A1532260A128A114D300A12B4
:100138008A11B1270A128A1183120313A901C03048
:100148000A128A1532260A128A11831203134F08DB
:10015800B1004E08B0000A128A15AE270A128A1199
:100168005C300A128A11B1270A128A11831203130A
:100178005108B1005008B0000A128A15AE270A12B9
:100188008A115C300A128A11B1270A128A11831265
:1001980003136108B1006008B0000A128A15AE277F
:1001A8000A128A11831203136208031DDC28DD2852
:1001B800E5290716071AE128E5288312031387168D
:1001C800E828831203138712871AEB28EF28831273
:1001D80003130717F228831203130713071BF528C5
:1001E800F928831203138717FC2883120313871334
:1001F800033083120313BF008A30BE005530BD00A0
:10020800BD0B0429BE0B0429BF0B0429C730831278
:1002180003139F051F151F19122913290F292030B1
:1002280083120313BD00BD0B1729000083120313AB
:100238001E08DF00831603131E0883120313DE0053
:100248001F08C73908389F001F151F192C292D2989
:100258002929203083120313BD00BD0B312900006A
:10026800831203131E08DD00831603131E0883126E
:100278000313DC001F08C73910389F001F151F190A
:10028800462947294329203083120313BD00BD0B9B
:100298004B290000831203131E08DB008316031387
:1002A8001E0883120313DA001F08C73918389F0085
:1002B8001F151F19602961295D2920308312031336
:1002C800BD00BD0B65290000831203131E08D90069
:1002D800831603131E0883120313D8000A128A1107
:1002E800E2220A128A11831203134F08803AFF0090
:1002F80080307F02031D822901304E02031C8529AC
:1003080086299C29831203134F08803AFF00803006
:100318007F02031D912908304E020318942995295C
:100328009C29033083120313BD003D08E200E52930
:10033800831203134F08803AFF0080307F02031DA9
:10034800A72908304E02031CAA29AB29BF2983120A
:1003580003134F08803AFF0080307F02031DB6293F
:100368000C304E020318B929BA29BF298312031386
:10037800E201E20AE529831203134F08803AFF00DD
:1003880080307F02031DCA2912304E020318CD297E
:10039800CE29D529023083120313BD003D08E2009F
:1003A800E529831203134F08803AFF0080307F024B
:1003B800031DE02917304E020318E329E429E52933
:1003C80095296400413083120313BE00ED30BD004F
:1003D800BD0BEC29BE0BEC29F12983120313620330
:1003E800031DF729F8293F2A5D08803AFF0083306A
:1003F8007F02031D012A6E305C020318042A052AB5
:100408000C2A8312031308108814081188113E2A35
:10041800831203135F08803AFF0083307F02031DB5
:10042800172A6E305E0203181A2A1B2A222A831200
:10043800031308148810081188113E2A8312031325
:100448005908803AFF0083307F02031D2D2A6E3041
:1004580058020318302A312A382A83120313081045
:100468008810081188153E2A831203130810881073
:1004780008118811E20102306206031D442A452A48
:100488008C2A5D08803AFF0083307F02031D4E2AC4
:100498006E305C020318512A522A592A8312031318
:1004A80008108814081188118B2A831203135F0817
:1004B800803AFF0083307F02031D642A6E305E029B
:1004C8000318672A682A6F2A8312031308148810EE
:1004D800081188118B2A831203135908803AFF00E8
:1004E80083307F02031D7A2A6E30580203187D2A52
:1004F8007E2A852A8312031308108810081188158C
:100508008B2A831203130810881008158811E2013A
:1005180003306206031D912A922AD92A5B08803A81
:10052800FF0083307F02031D9B2A6E305A02031896
:100538009E2A9F2AA62A83120313081088100815DA
:100548008811D82A831203135F08803AFF0083308A
:100558007F02031DB12A6E305E020318B42AB52A41
:10056800BC2A831203130814881008118811D82A8A
:10057800831203135908803AFF0083307F02031D5A
:10058800C72A6E3058020318CA2ACB2AD22A8312E5
:1005980003130810881008118815D82A831203132A
:1005A8000810881408118811E2010A128A11E2223F
:1005B8000A128A1189280A128A1110280A128A1521
:1005C80074250A128A11D03083120313B600003042
:1005D800B7000A128A15D0250A128A110030831230
:1005E8000313B600B7000A128A15D0250A128A1119
:1005F8000A128A1586250A128A11D130831203132A
:10060800B6000030B7000A128A15D0250A128A11DE
:10061800003083120313A700A8000A128A15D526F2
:100628000A128A11831203132808AE002708AD00A6
:100638000A128A15A8260A128A11831203132E0891
:10064800E1002D08E0000030A700A8000A128A1572
:10065800D5260A128A11831203132808AE00270828
:10066800AD000A128A15A8260A128A1183120313EA
:100678002E08D1002D08D0000030A700A8000A12CB
:100688008A15D5260A128A11831203132808AE0088
:100698002708AD000A128A15A8260A128A118312A1
:1006A80003132E08CF002D08CE000030A700A800A5
:1006B8000A128A15D5260A128A11003083120313EA
:1006C800A700A8000A128A15D5260A128A11003036
:1006D80083120313A700A8000A128A15D5260A1246
:1006E8008A11013083120313A7000030A8000A12F0
:1006F8008A15D5260A128A110A128A157D250A1228
:100708008A1108000A128A1574250A128A11D03033
:1007180083120313B6000030B7000A128A15D025D9
:100728000A128A11003083120313B600B7000A12A6
:100738008A15D0250A128A11831203136108B100A1
:100748006008B0000A128A1574270A128A118312E7
:1007580003133108B7003008B6000A128A15D025ED
:100768000A128A11831203135108B1005008B0000D
:100778000A128A1574270A128A1183120313310880
:10078800B7003008B6000A128A15D0250A128A1155
:10079800831203134F08B1004E08B0000A128A15DD
:1007A80074270A128A11831203133108B70030081C
:1007B800B6000A128A15D0250A128A11013083124E
:1007C8000313B6000030B7000A128A15D0250A12A2
:1007D8008A11013083120313B6000030B7000A12E1
:1007E8008A15D0250A128A11013083120313B60024
:1007F8000030B7000A128A15D0250A128A11013072
:1008080083120313B6000030B7000A128A15D025E8
:100818000A128A110A128A157D250A128A110800FD
:100828000A128A1562250A128A11D030831203131C
:10083800A2000030A3000A128A15C1250A128A11E3
:10084800003083120313A200A3000A128A15C125DF
:100858000A128A11831203136108FA006008F9006A
:100868000A128A1504270A128A117A0883120313B6
:10087800A3007908A2000A128A15C1250A128A1152
:10088800831203135108FA005008F9000A128A1556
:1008980004270A128A117A0883120313A30079081D
:1008A800A2000A128A15C1250A128A11831203139B
:1008B8004F08FA004E08F9000A128A1504270A128E
:1008C8008A117A0883120313A3007908A2000A1276
:1008D8008A15C1250A128A11013083120313A20056
:1008E8000030A3000A128A15C1250A128A110130A4
:1008F80083120313A2000030A3000A128A15C1252F
:100908000A128A11013083120313A2000030A300D7
:100918000A128A15C1250A128A110130831203139B
:10092800A2000030A3000A128A15C1250A128A11F2
:100938000A128A156B250A128A11080083160313F6
:100948000612831203138612033086000A128A15D0
:10095800DF250A128A110A128A159B250A128A11A2
:1009680002308312031386000A128A15DF250A1241
:100978008A110A128A159B250A128A1102308312DB
:10098800031386000A128A15DF250A128A110A1231
:100998008A159B250A128A110830831203138600D0
:1009A8000A128A15DF250A128A110A128A159B254E
:1009B8000A128A118312031386010A128A15DF2587
:1009C8000A128A110C308312031386000A128A1540
:1009D800DF250A128A110A128A159B250A128A1122
:1009E8008312031386010A128A15DF250A128A1157
:1009F80006308312031386000A128A15DF250A12AD
:100A08008A110A128A159B250A128A110800831274
:100A18000313AD01A81F112D122D192DA709A8091F
:100A2800A70A0319A80AAD01AD0AAA1F1C2D1D2D7E
:100A3800262DA909AA09A90A0319AA0A0130AB0097
:100A48002B08AD06AE01AF012708280403192D2D88
:100A58002E2D652DAC01AC0A3C2D01300310A70DDD
:100A6800A80DFF3E031D322D0130AB002B08AC074B
:100A7800A81F3F2D402D312D01300310AE0DAF0DB5
:100A8800FF3E031D412D28082A02031D4D2D27086E
:100A98002902031C502D512D582D2708A90228087A
:100AA800031CAA03AA022E1401300310A80CA70CD9
:100AB800FF3E031D592D0130AC02031D642D652D29
:100AC800402D2D080319692D6A2D6F2DAE09AF0928
:100AD800AE0A0319AF0A2F08A8002E08A7000800BD
:100AE800003083120313B3000030B2000030B100AD
:100AF8000030B0002A082904280427040319852D8A
:100B0800862DD32DB401B40A962D0130AF00031001
:100B1800A70DA80DA90DAA0DAF0B8B2D0130AF00A5
:100B28002F08B407AA1F992D9A2D892D0130AF00DF
:100B38000310B00DB10DB20DB30DAF0B9C2D2A08EB
:100B48002E02031DB12D29082D02031DB12D2808E1
:100B58002C02031DB12D27082B02031CB42DB52D23
:100B6800C42D2708AB022808031C280FAC0229084B
:100B7800031C290FAD022A08031C2A0FAE023014E9
:100B880001300310AA0CA90CA80CA70CFF3E031DEA
:100B9800C52D0130B402031DD22DD32D9A2D330853
:100BA800AA003208A9003108A8003008A7000800E8
:100BB800F601F11FE02DE12DE82DF009F109F00A09
:100BC8000319F10AF601F60AF31FEB2DEC2DF52DAA
:100BD800F209F309F20A0319F30A0130F400740860
:100BE800F606F701F801700871040319FC2DFD2DB4
:100BF800342EF501F50A0B2E01300310F00DF10D1E
:100C0800FF3E031D012E0130F4007408F507F11FA3
:100C18000E2E0F2E002E01300310F70DF80DFF3E9B
:100C2800031D102E71087302031D1C2E700872021A
:100C3800031C1F2E202E272E7008F2027108031C99
:100C4800F303F302771401300310F10CF00CFF3EAC
:100C5800031D282E0130F502031D332E342E0F2ECE
:100C680076080319382E392E3E2EF709F809F70AA7
:100C78000319F80A7808F1007708F0000800063030
:100C88008A000408840A820700340034003480345F
:100C98003F341834723431343F34F034FD34753411
:100CA8003E344734583463343D34583495341D3415
:100CB8003C348234C434AE343A34A83478342134E1
:100CC8003934EF34933480343734A0349234A73431
:100CD8003534463456341534343400340034003452
:100CE8000034C434FF347F343F348034EF34FF346D
:100CF800BE349034E134A9343E34EC348234763452
:100D0800BE348234AD342B343E340E343C34C334D8
:100D1800BD348734D13413343D3441347834D3343A
:100D2800BB3450344834413453344534203453347C
:100D380045344C344534433454344F3452340034FD
:100D48003A34003483120313AD01AA1FAC2EAD2E22
:100D5800B42EA909AA09A90A0319AA0AAD01AD0A5C
:100D6800A81FB72EB82EBD2EA709A809A70A0319D0
:100D7800A80A270828040319C22EC32EF22EAC0194
:100D8800AC0AD12E01300310A70DA80DFF3E031D9C
:100D9800C72E0130AB002B08AC07A81FD42ED52EC8
:100DA800C62E28082A02031DDB2E27082902031C49
:100DB800DE2EDF2EE52E2708A9022808031CAA0329
:100DC800AA0201300310A80CA70CFF3E031DE62E53
:100DD8000130AC02031DF12EF22ED52E2D08031979
:100DE800F62EF72EFC2EA909AA09A90A0319AA0AA0
:100DF8002A08A8002908A7000800F601F31F052FF4
:100E0800062F0D2FF209F309F20A0319F30AF60166
:100E1800F60AF11F102F112F162FF009F109F00A09
:100E28000319F10A7008710403191B2F1C2F4B2F8B
:100E3800F501F50A2A2F01300310F00DF10DFF3EE0
:100E4800031D202F0130F4007408F507F11F2D2F22
:100E58002E2F1F2F71087302031D342F7008720282
:100E6800031C372F382F3E2F7008F2027108031C1D
:100E7800F303F30201300310F10CF00CFF3E031DE5
:100E88003F2F0130F502031D4A2F4B2F2E2F7608D6
:100E980003194F2F502F552FF209F309F20A03199E
:100EA800F30A7308F1007208F00008000B1D5D2FAB
:100EB8005E2F782F4F08803AFF0080307F02031D95
:100EC800672F17304E0203186A2F6B2F742F0130CB
:100ED80083120313CE070318CF0A0030CF07782FE9
:100EE80083120313CE01CF010C1C7B2F7C2F962F6E
:100EF8005108803AFF0080307F02031D852F17308C
:100F080050020318882F892F922F01308312031360
:100F1800D0070318D10A0030D107962F8312031384
:100F2800D001D1010B110C10FF308100FF308F0070
:100F3800FF308E0064000A128A1114240A128A11E2
:100F480064008312031388122608FF0025088A000C
:100F5800240E8300FE0E7E0E090083120313AE00DA
:100F6800AD01F12F2D082E0784000A128A1143269D
:100F78000A128A11A90004300310A90CFF3E031DB0
:100F8800C02F29080F39AA002A08AC002D082E07FF
:100F980084000A128A1143260A128A110F39A900FD
:100FA8002908AB0006160608F0392C0486000A1238
:100FB8008A15DF250A128A11831203130608F039ED
:100FC8002B0486000A128A15DF250A128A110130BD
:100FD80083120313A9002908AD072D082E078400E2
:100FE8000A128A1143260A128A11003A031DFD2F9C
:060FF800FE2FB62F0800D9
:101AB40064008001840A04060319003404065B2DC3
:101AC4000A128A15A7250A128A15831603131114FC
:101AD40008000A128A15A7250A128A158316031309
:101AE400111508000A128A15B4250A128A158316DC
:101AF4000313111408000A128A15B4250A128A1550
:101B040083160313111508000A128A15B4250A1244
:101B14008A158316031391140800213083120313CA
:101B2400A8007530A700A70B952DA80B952D9A2D0D
:101B34000800213083120313A8007530A700A70BF7
:101B4400A12DA80BA12DA62D08008316031311089F
:101B54001F39031DAE2DAF2DA72D1419B22DB32D92
:101B6400A72D08008316031311081F39031DBB2D6D
:101B7400BC2DB42D1419BF2DC02DB42D08000A128C
:101B84008A15A7250A128A158312031322089300C3
:101B94000A128A15A7250A128A1508000A128A153C
:101BA400B4250A128A1583120313360893000A1205
:101BB4008A15B4250A128A1508008312031306171E
:101BC4000A128A158F250A128A1583120313061323
:101BD4000A128A158F250A128A15080045344C34D6
:101BE40045344334543452344F344E3449344334FA
:101BF400533400346E3403340F3400340A34003464
:101C04007E088A007F0882000A128A1502260A12B8
:101C14008A158000840A04087D0603190034FF0A2B
:101C24000319FE0A062E831203130613061206086E
:101C3400F03986000A128A15DF250A128A158312E2
:101C440003130608F039013886000A128A15DF25C5
:101C54000A128A150A128A159B250A128A15080087
:101C640083120313AC00061306122C082907AA00DA
:101C7400AB01AB0D0430FF002B0DAB0CAA0CFF0B1A
:101C84003E2E2A0886000A128A15DF250A128A15B2
:101C94008312031329082C070F3986000A128A15A8
:101CA400DF250A128A15080083120313AB01AC0165
:101CB400271C5D2E5E2E642E2908AB070318AC0A80
:101CC4002A08AC0701300310A90DAA0DFF3E031D1D
:101CD400652E01300310A80CA70CFF3E031D6C2ECB
:101CE40027082804031D772E782E5A2E2C08A800C6
:101CF4002B08A700080083120313AD002D08A900C8
:101D040004300310A90CFF3E031D832E29080F394C
:101D1400AA002A08AB002D080F39A9002908AC0035
:101D240006160608F0392B0486000A128A15DF25E8
:101D34000A128A15831203130608F0392C0486004C
:101D44000A128A15DF250A128A1508000F30831239
:101D540003132D05AF0000302E05B0002D0E0F39F2
:101D6400A7002E0EF039A7042E0E0F39A800F0306C
:101D7400A81D0030A8040A30A9000030AA000A12E5
:101D84008A1556260A128A15831203132F08270769
:101D9400B10030080318300A2807B2003208AE0038
:101DA4003108AD0008000A128A15B4250A128A15F2
:101DB4008316031391150A128A15B4250A128A157B
:101DC400831203131308A900AA012908AB002A08E7
:101DD400AC000A128A15B4250A128A158312031359
:101DE4002718F52EF92E831603139116FC2E83164D
:101DF400031391121116831203132C08A8002B0845
:101E0400A70008000A30F0000030F1007A08F3005F
:101E14007908F2000A128A11DC250A128A15700860
:101E2400FB007108FC00FB0EFC0EF030FC057B0887
:101E34000F39FC04F030FB050A30F0000030F100EB
:101E44007A08F3007908F2000A128A1101270A12AB
:101E54008A1570087B0783120313A0007108031806
:101E6400710A7C07A1002108FA002008F900080083
:101E740028308312031394008316031391019401F1
:101E8400831203133508B9003608BA003708BB00BB
:101E94003808BC0002300310B90DBA0DBB0DBC0DDF
:101EA400FF3E031D4D2F3C08AA003B08A9003A0839
:101EB400A8003908A7000130AE003130AD002D3044
:101EC400AC000030AB000A128A1174250A128A157C
:101ED400831203132708FF3E831603139300871509
:101EE400071608000A3083120313A7000030A80065
:101EF4003108AA003008A9000A128A110B250A1217
:101F04008A15831203132708B2002808B300B20EFF
:101F1400B30EF030B30532080F39B304F030B20514
:101F24000A30A7000030A8003108AA003008A90030
:101F34000A128A11A6260A128A1583120313270885
:101F44003207B40028080318280A3307B5003508F7
:101F5400B1003408B0000800831203133108803A3A
:101F6400FF0080307F02031DB92F0A303002031CAA
:101F7400BC2FBD2FF62F0A3083120313A7000030A5
:101F8400A8003108AA003008A9000A128A110B25FA
:101F94000A128A15831203132708303EB20032084E
:101FA400B3000A30A7000030A8003108AA003008A6
:101FB400A9000A128A11A6260A128A15831203138B
:101FC4002708303EB2003208B40033080A128A15DA
:101FD4007D260A128A158312031334080A128A15FD
:101FE4007D260A128A15FF2F831203133008303E10
:0C1FF4000A128A157D260A128A150800C0
:02400E003A3F37
:00000001FF
