:060000000A128A1110280B
:10000800FE00030E83120313A7000A08A8007F0846
:10001800A9000A128A118C2F0A128A111328831335
:10002800C230FD000A30FE005830FF00B6308400B0
:100038000A128A15B1220A128A110A128A1509228D
:100048000A128A11D7000A128A150A220A128A117C
:10005800D80083160313C201C301C401C50144308B
:10006800840057300A128A150B220A128A1183015A
:100078000A128A113F288316031386018312031379
:100088008601C230831603139F00C1308312031305
:100098009F00FF30831603138500C0308800831249
:1000A80003138801FF3081008B12A83083160313D5
:1000B800810007140630831203139000FF308F006D
:1000C800FF308E00831603130C108C110B138B1347
:1000D8008312031310140030BD000130BC008630B9
:1000E800BB00A030BA000A128A15E5230A128A1149
:1000F8000A128A1170260A128A118B1683160313A4
:100108000C140A128A1597270A128A110A128A15DC
:10011800C0220A128A110A128A15C0220A128A11EA
:10012800033083160313A000200883120313AE00C4
:1001380080300A128A15DD220A128A114D300A12FD
:100148008A155D250A128A11831203138811081172
:10015800881008100B178B17053083160313A0009F
:10016800200883120313AE00C0300A128A15DD225C
:100178000A128A11831203135108B6005008B500F9
:100188000A128A112D240A128A11AE300A128A150F
:100198005D250A128A11831203135308B600520808
:1001A800B5000A128A112D240A128A11AE300A12D9
:1001B8008A155D250A128A11831203135508B600A1
:1001C8005408B5000A128A112D240A128A118312C2
:1001D80003135608031DF128F228152A0716071AD3
:1001E800F628FA28831203138716FD2883120313AF
:1001F8008712871A0029042983120313071707296E
:10020800831203130713071B0A290E2983120313EA
:1002180087171129831203138713033083160313D7
:10022800A2008A30A1005530A000A00B1929A10B0B
:100238001929A20B1929C730831203139F052030EF
:1002480083160313A000A00B2729000083120313B1
:100258001F151F19302931292D291E08CF00831693
:1002680003131E0883120313CE00A530831603134D
:10027800A000A00B3D294029831203131F08C7398A
:1002880008389F00203083160313A000A00B4A29CA
:100298000000831203131F151F19532954295029CD
:1002A8001E08CD00831603131E0883120313CC0007
:1002B800A53083160313A000A00B602963298312BD
:1002C80003131F08C73910389F0020308316031303
:1002D800A000A00B6D290000831203131F151F191E
:1002E8007629772973291E08CB00831603131E0865
:1002F80083120313CA00A53083160313A000A00BB2
:1003080083298629831203131F08C73918389F00C9
:10031800203083160313A000A00B9029000083123D
:1003280003131F151F1999299A2996291E08C90010
:10033800831603131E0883120313C800A5308316FF
:100348000313A000A00BA629A9290A128A11CC25FB
:100358000A128A1183120313D11BB329B429CA299B
:100368005108803AFF0080307F02031DBD29083004
:1003780050020318C029C129CA2903308316031360
:10038800A000200883120313D600152A8312031332
:100398005108803AFF0080307F02031DD5290830BC
:1003A8005002031CD829D929ED29831203135108B7
:1003B800803AFF0080307F02031DE4290C30500290
:1003C8000318E729E829ED2983120313D601D60A71
:1003D800152A831203135108803AFF0080307F02E8
:1003E800031DF829123050020318FB29FC29052A9D
:1003F800023083160313A000200883120313D600CB
:10040800152A831203135108803AFF0080307F02B7
:10041800031D102A173050020318132A142A152A0C
:10042800C1296400413083160313A100ED30A000F8
:10043800A00B1C2AA10B1C2A212A031083120313C8
:100448008819031400300318013083160313A00021
:10045800A101200883120313C60083160313210881
:1004680083120313C700031008190314003003187C
:10047800013083160313A000A1010310A00DA10DE4
:10048800200883120313C60483160313210883125A
:100498000313C7040310881803140030031801302D
:1004A80083160313A000A1010310A00DA10D0310D2
:1004B800A00DA10D200883120313C604831603138D
:1004C800210883120313C70403100818031400300B
:1004D8000318013083160313A000A1010310A00D17
:1004E800A10D0310A00DA10D0310A00DA10D200852
:1004F80083120313C60483160313210883120313FC
:10050800C7045603031D892A8A2ACF2A4D08803A30
:10051800FF0083307F02031D932A98304C02031892
:10052800962A972A9D2A0A128A15DB240A128A110A
:10053800CC2A831203134F08803AFF0083307F02CE
:10054800031DA82A98304E020318AB2AAC2AB22AF7
:100558000A128A151C250A128A11CC2A831203133F
:100568004908803AFF0083307F02031DBD2A983076
:1005780048020318C02AC12AC72A0A128A159A24CF
:100588000A128A11CC2A0A128A1559240A128A11C7
:1005980083120313D60102305606031DD42AD52A26
:1005A8001A2B4D08803AFF0083307F02031DDE2A94
:1005B80098304C020318E12AE22AE82A0A128A151E
:1005C800DB240A128A11172B831203134F08803A6F
:1005D800FF0083307F02031DF32A98304E02031870
:1005E800F62AF72AFD2A0A128A151C250A128A11E8
:1005F800172B831203134908803AFF0083307F02C8
:10060800031D082B9830480203180B2B0C2B122BB8
:100618000A128A159A240A128A11172B0A128A15A5
:1006280059240A128A1183120313D601033056067D
:10063800031D1F2B202B652B4B08803AFF008330AE
:100648007F02031D292B98304A0203182C2B2D2BCF
:10065800332B0A128A1559240A128A11622B831223
:1006680003134F08803AFF0083307F02031D3E2B9F
:1006780098304E020318412B422B482B0A128A1538
:100688001C250A128A11622B831203134908803A27
:10069800FF0083307F02031D532B98304802031854
:1006A800562B572B5D2B0A128A159A240A128A1187
:1006B800622B0A128A15DB240A128A118312031389
:1006C800D6010A128A11CC250A128A118312031341
:1006D800AE0194300A128A15DD220A128A1103101B
:1006E800831203138819031400300318013083168A
:1006F8000313A000A10101302005A200003021054C
:10070800A3000310A20DA30D0310A20DA30D031047
:10071800A20DA30D0310831203130819031400304C
:100728000318013083160313A400A5010130240522
:10073800A60000302505A7000310A60DA70D03107D
:10074800A60DA70D03108312031388180314003095
:100758000318013083160313A800A90101302805E6
:10076800AA0000302905AB000310AA0DAB0D031039
:10077800831203130818031400300318013083167A
:100788000313AC00AD0101302C05AE0000302D057F
:10079800AF002A082E04B0002B082F04B100260849
:1007A8003004B20027083104B30022083204B40030
:1007B80023083304B500340883120313C2008316D8
:1007C8000313350883120313C300142C5C300A1278
:1007D8008A155D250A128A11B0286A300A128A150C
:1007E8005D250A128A11B02878300A128A155D250B
:1007F8000A128A11B02886300A128A155D250A1253
:100808008A11B028A1300A128A155D250A128A11A8
:10081800B028A8300A128A155D250A128A11B02854
:100828004308003A0319192C0D2C4208003A031901
:10083800EA2B013A0319F12B033A0319F82B063A6C
:100848000319FF2B0C3A0319062C0D2C0A128A11D6
:100858001028831203133608803AFF0080307F0285
:10086800031D382C64303502031C3B2C3C2CBF2C58
:10087800643083120313AC000030AD003608AF00BB
:100888003508AE000A128A152E270A128A11831219
:1008980003132C08303EB7003708B8006430AC00AA
:1008A8000030AD003608AF003508AE000A128A15D0
:1008B8002E270A128A11831203132D08BE002C0852
:1008C800BD003E08AD003D08AC006430AE0000300D
:1008D800AF000A128A1501230A128A118312031320
:1008E8002D08BE002C08BD003D083502B5003E08A5
:1008F800031C3E0A3602B6000A30AC000030AD00D8
:100908003608AF003508AE000A128A152E270A12DB
:100918008A11831203132C08303EB7003708B90038
:100928000A30AC000030AD003608AF003508AE0024
:100938000A128A1504260A128A11831203132C0834
:10094800303EB7003708BA0038080A128A1528233B
:100958000A128A118312031339080A128A152823E6
:100968000A128A11831203133A080A128A152823D5
:100978000A128A11162D831203133608803AFF00D3
:1009880080307F02031DCA2C0A303502031CCD2C8F
:10099800CE2C072D0A3083120313AC000030AD00B3
:1009A8003608AF003508AE000A128A152E270A123B
:1009B8008A11831203132C08303EB7003708BB0096
:1009C8000A30AC000030AD003608AF003508AE0084
:1009D8000A128A1504260A128A11831203132C0894
:1009E800303EB7003708BC003B080A128A15282396
:1009F8000A128A11831203133C080A128A15282343
:100A08000A128A11162D30300A128A1528230A1262
:100A18008A11831203133508303E0A128A152823D7
:100A28000A128A11080005308A000408840A82071D
:100A380000340034003480343F3418347234313494
:100A48003F34F034FD3475343E344734583463341D
:100A58003D34583495341D343C348234C434AE3477
:100A68003A34A834783421343934EF349334803428
:100A78003734A0349234A7343534463456341534D8
:100A880034340034003400340034C434FF347F3448
:100A98003F348034EF34FF34BE349034E134A93429
:100AA8003E34EC3482347634BE348234AD342B3464
:100AB8003E340E343C34C334BD348734D13413341B
:100AC8003D3441347834D334BB3450344834413421
:100AD800533445342034533445344C34453443344A
:100AE80054344F34523400344E3455344C344C342E
:100AF800203420342034203420342034203420344E
:100B080020340034773469346E346434203420342B
:100B1800203420342034203420342034203400344D
:100B280073346F346C34613472342034203420349C
:100B380020342034203420342034003462346934A2
:100B48006F346734613473342034203420342034D3
:100B580020342034203400347334773469347434C6
:100B68006334683469346E3467342E342E342E344A
:100B780000347034683463346E34203420340034E4
:100B88005234453453344534543400343A34003400
:100B98000A128A1525220A128A11D03083120313E9
:100BA800BB000030BC000A128A158D220A128A1175
:100BB800003083120313BB00BC000A128A158D2271
:100BC8000A128A110A128A1537220A128A11D1309A
:100BD80083120313BB000030BC000A128A158D2251
:100BE8000A128A11003083120313AC00AD000A12F6
:100BF8008A1580230A128A11831203132D08B30061
:100C08002C08B2000A128A1553230A128A11831279
:100C180003133308D5003208D4000030AC00AD000F
:100C28000A128A1580230A128A11831203132D08C7
:100C3800B3002C08B2000A128A1553230A128A112B
:100C4800831203133308D3003208D2000030AC00FB
:100C5800AD000A128A1580230A128A11831203131F
:100C68002D08B3002C08B2000A128A1553230A1261
:100C78008A11831203133308D1003208D0000030E0
:100C8800AC00AD000A128A1580230A128A110030BE
:100C980083120313AC00AD000A128A1580230A12CE
:100CA8008A11003083120313AC00AD000A128A15B2
:100CB80080230A128A11013083120313AC0000301A
:100CC800AD000A128A1580230A128A110A128A159F
:100CD8002E220A128A1108000A128A1525220A12DF
:100CE8008A11D03083120313BB000030BC000A12F3
:100CF8008A158D220A128A11003083120313BB0051
:100D0800BC000A128A158D220A128A118312031353
:100D18005508B6005408B5000A128A151F240A128D
:100D28008A11831203133608BC003508BB000A1267
:100D38008A158D220A128A11831203135308B600EA
:100D48005208B5000A128A151F240A128A11831242
:100D580003133608BC003508BB000A128A158D2219
:100D68000A128A11831203135108B6005008B500FD
:100D78000A128A151F240A128A11831203133608CD
:100D8800BC003508BB000A128A158D220A128A1186
:100D9800013083120313BB000030BC000A128A150D
:100DA8008D220A128A11013083120313BB0000300E
:100DB800BC000A128A158D220A128A110130831288
:100DC8000313BB000030BC000A128A158D220A12D8
:100DD8008A11013083120313BB000030BC000A12D1
:100DE8008A158D220A128A110A128A152E220A12CF
:100DF8008A1108000A128A1513220A128A11D030A1
:100E080083120313A2000030A3000A128A157E225F
:100E18000A128A11003083120313A200A3000A12D7
:100E28008A157E220A128A11831203135508FA00C2
:100E38005408F9000A128A15AF230A128A117A088F
:100E480083120313A3007908A2000A128A157E22CE
:100E58000A128A11831203135308FA005208F90080
:100E68000A128A15AF230A128A117A088312031309
:100E7800A3007908A2000A128A157E220A128A1192
:100E8800831203135108FA005008F9000A128A1550
:100E9800AF230A128A117A0883120313A300790870
:100EA800A2000A128A157E220A128A1101308312C0
:100EB8000313A2000030A3000A128A157E220A1228
:100EC8008A11013083120313A2000030A3000A1212
:100ED8008A157E220A128A11013083120313A20096
:100EE8000030A3000A128A157E220A128A110130E4
:100EF80083120313A2000030A3000A128A157E226F
:100F08000A128A110A128A151C220A128A1108006A
:100F18006400831203138816033083120313A60098
:100F28008A30A5005530A400A40B982FA50B982F44
:100F3800A60B982F0B1DA12FA22FC42F83120313CA
:100F48005108AB005008AA005108803AFF008030D1
:100F58007F02031DB12F173050020318B42FB52F8D
:100F6800C02F831203132A08013ED0002B08031850
:100F7800013E003ED100C42F83120313D001D101DA
:100F8800831203130C1CC92FCA2FE42F5308803A6D
:100F9800FF0080307F02031DD32F3B30520203181D
:100FA800D62FD72FE02F013083120313D20703184F
:100FB800D30A0030D307E42F83120313D201D301DD
:100FC8000B110C10FF308100FF308F00FF308E00B6
:100FD80064000A128A11FE260A128A11640083121A
:100FE800031388122908FF0028088A00270E8300A7
:060FF800FE0E7E0E090052
:101412009834033464008001840A040603190034FA
:1014220004060C2A0A128A1564220A128A158316E5
:101432000313111408000A128A1564220A128A156B
:1014420083160313111508000A128A1571220A1253
:101452008A1583160313111408000A128A157122C1
:101462000A128A1583160313111508000A128A1527
:1014720071220A128A15831603139114080021306F
:1014820083120313AD007530AC00AC0B462AAD0BD2
:10149200462A4B2A0800213083120313AD0075300F
:1014A200AC00AC0B522AAD0B522A572A0800453425
:1014B2004C3445344334543452344F344E3449342A
:1014C2004334533400348316031311081F39031DA8
:1014D2006B2A6C2A642A14196F2A702A642A08005B
:1014E2008316031311081F39031D782A792A712ADA
:1014F20014197C2A7D2A712A08000A128A1564228C
:101502000A128A1583120313220893000A128A15FB
:1015120064220A128A1508000A128A1571220A1216
:101522008A15831203133B0893000A128A1571224B
:101532000A128A1508008312031306170A128A1563
:1015420040220A128A158312031306130A128A15FD
:1015520040220A128A1508007E088A007F0882004B
:101562000A128A15AD220A128A158000840A04081A
:101572007D0603190034FF0A0319FE0AB12A8312F9
:101582000313061306120608F03986000A128A159A
:101592009C220A128A15831203130608F0390138B5
:1015A20086000A128A159C220A128A150A128A15C4
:1015B2004C220A128A15080083120313B100061383
:1015C200061231082E07AF00B001B00D0430FF0043
:1015D200300DB00CAF0CFF0BE92A2F0886000A125F
:1015E2008A159C220A128A15831203132E083107C8
:1015F2000F3986000A128A159C220A128A150800DF
:1016020083120313B001B1012C1C082B092B0F2BE1
:101612002E08B0070318B10A2F08B10701300310D2
:10162200AE0DAF0DFF3E031D102B01300310AD0CAC
:10163200AC0CFF3E031D172B2C082D04031D222B7F
:10164200232B052B3108AD003008AC0008008312B3
:101652000313B2003208AE0004300310AE0CFF3E9A
:10166200031D2E2B2E080F39AF002F08B0003208B1
:101672000F39AE002E08B10006160608F039300404
:1016820086000A128A159C220A128A1583120313F3
:101692000608F039310486000A128A159C220A12C1
:1016A2008A1508000F30831203133205B40000308C
:1016B2003305B500320E0F39AC00330EF039AC04ED
:1016C200330E0F39AD00F030AD1D0030AD040A30DD
:1016D200AE000030AF000A128A1501230A128A15E1
:1016E2008312031334082C07B60035080318350A91
:1016F2002D07B7003708B3003608B20008000A12F7
:101702008A1571220A128A158316031391150A1279
:101712008A1571220A128A15831203131308AE0066
:10172200AF012E08B0002F08B1000A128A157122EB
:101732000A128A15831203132C18A02BA42B8316CA
:1017420003139116A72B83160313911211168312FA
:1017520003133108AD003008AC0008000A30F00075
:101762000030F1007A08F3007908F2000A128A15B3
:101772005F260A128A157008FB007108FC00FB0E36
:10178200FC0EF030FC057B080F39FC04F030FB0541
:101792000A30F0000030F1007A08F3007908F20014
:1017A2000A128A15AB250A128A1570087B07831262
:1017B2000313A00071080318710A7C07A100210815
:1017C200FA002008F900080028308312031394005D
:1017D2008316031391019401831203133A08BE0086
:1017E2003B08BF003C08C0003D08C10002300310A6
:1017F200BE0DBF0DC00DC10DFF3E031DF82B4108EC
:10180200AF004008AE003F08AD003E08AC0001301A
:10181200B3003130B2002D30B1000030B0000A12F6
:101822008A15C6260A128A15831203132C08FF3E54
:101832008316031393008715071608000A308312D4
:101842000313AC000030AD003608AF003508AE001F
:101852000A128A152E270A128A15831203132C08DC
:10186200B7002D08B800B70EB80EF030B80537082B
:101872000F39B804F030B7050A30AC000030AD00C3
:101882003608AF003508AE000A128A1504260A127D
:101892008A15831203132C083707B9002D08031881
:1018A2002D0A3807BA003A08B6003908B500080010
:1018B20083120313081D5E2C5F2C602C992C0816D2
:1018C200AE0194300A128A15DD220A128A1594306A
:1018D2000A128A155D250A128A15663083120313CD
:1018E200B6007630B500C030B400B40B762CB50B20
:1018F200762CB60B762C0000831203138811081184
:10190200881008100815663083120313B60076306B
:10191200B500C030B400B40B8C2CB50B8C2CB60BBC
:101922008C2C0000831203130810881088110812EF
:10193200080083120313881D9F2CA02CA12CDA2CE3
:101942000816AE0194300A128A15DD220A128A158F
:1019520094300A128A155D250A128A15663083129E
:101962000313B6007630B500C030B400B40BB72C08
:10197200B50BB72CB60BB72C0000831203138811DA
:101982000811881008108815663083120313B600F8
:101992007630B500C030B400B40BCD2CB50BCD2CD5
:1019A200B60BCD2C00008312031308108810081107
:1019B2000812080083120313881CE02CE12CE22C8D
:1019C2001B2D0816AE0194300A128A15DD220A1266
:1019D2008A1594300A128A155D250A128A15663014
:1019E20083120313B6007630B500C030B400B40BD6
:1019F200F82CB50BF82CB60BF82C0000831203134D
:101A02008811081188100810881466308312031395
:101A1200B6007630B500C030B400B40B0E2DB50B55
:101A22000E2DB60B0E2D00008312031308100811A1
:101A320088110812080083120313081C212D222D7D
:101A4200232D5C2D0816AE0194300A128A15DD2270
:101A52000A128A1594300A128A155D250A128A150D
:101A6200663083120313B6007630B500C030B4007E
:101A7200B40B392DB50B392DB60B392D000083125D
:101A82000313881108118810081008146630831295
:101A92000313B6007630B500C030B400B40B4F2D3E
:101AA200B50B4F2DB60B4F2D000083120313881078
:101AB200081188110812080083120313B300B2013F
:101AC2009D2D3208330784000A128A1117250A1243
:101AD2008A15AE0004300310AE0CFF3E031D6C2DC0
:101AE2002E080F39AF002F08B100320833078400E7
:101AF2000A128A1117250A128A150F39AE002E080A
:101B0200B00006160608F039310486000A128A155A
:101B12009C220A128A15831203130608F039300434
:101B220086000A128A159C220A128A150130831233
:101B32000313AE002E08B2073208330784000A12DC
:101B42008A1117250A128A15003A031DA92DAA2DFA
:101B5200622D0800F601F31FAF2DB02DB72DF2094B
:101B6200F309F20A0319F30AF601F60AF11FBA2D74
:101B7200BB2DC02DF009F109F00A0319F10A700812
:101B820071040319C52DC62DF52DF501F50AD42DC5
:101B920001300310F00DF10DFF3E031DCA2D01307F
:101BA200F4007408F507F11FD72DD82DC92D71083F
:101BB2007302031DDE2D70087202031CE12DE22D5B
:101BC200E82D7008F2027108031CF303F3020130DE
:101BD2000310F10CF00CFF3E031DE92D0130F5025C
:101BE200031DF42DF52DD82D76080319F92DFA2DA4
:101BF200FF2DF209F309F20A0319F30A7308F1003F
:101C02007208F000080083120313B201AF1F0A2EFC
:101C12000B2E122EAE09AF09AE0A0319AF0AB2019A
:101C2200B20AAD1F152E162E1B2EAC09AD09AC0A39
:101C32000319AD0A2C082D040319202E212E502E33
:101C4200B101B10A2F2E01300310AC0DAD0DFF3ED4
:101C5200031D252E0130B0003008B107AD1F322E12
:101C6200332E242E2D082F02031D392E2C082E026E
:101C7200031C3C2E3D2E432E2C08AE022D08031CC5
:101C8200AF03AF0201300310AD0CAC0CFF3E031DDD
:101C9200442E0130B102031D4F2E502E332E320836
:101CA2000319542E552E5A2EAE09AF09AE0A031946
:101CB200AF0A2F08AD002E08AC000800F601F11F94
:101CC200632E642E6B2EF009F109F00A0319F10A52
:101CD200F601F60AF31F6E2E6F2E782EF209F30923
:101CE200F20A0319F30A0130F4007408F606F70148
:101CF200F8017008710403197F2E802EB72EF501AA
:101D0200F50A8E2E01300310F00DF10DFF3E031D7A
:101D1200842E0130F4007408F507F11F912E922EE3
:101D2200832E01300310F70DF80DFF3E031D932E95
:101D320071087302031D9F2E70087202031CA22EEB
:101D4200A32EAA2E7008F2027108031CF303F302F9
:101D5200771401300310F10CF00CFF3E031DAB2E83
:101D62000130F502031DB62EB72E922E7608031906
:101D7200BB2EBC2EC12EF709F809F70A0319F80A7F
:101D82007808F1007708F00008000030831203138E
:101D9200B8000030B7000030B6000030B5002F08A0
:101DA2002E042D042C040319D72ED82E252FB90169
:101DB200B90AE82E0130B4000310AC0DAD0DAE0D22
:101DC200AF0DB40BDD2E0130B4003408B907AF1FDC
:101DD200EB2EEC2EDB2E0130B4000310B50DB60D48
:101DE200B70DB80DB40BEE2E2F083302031D032FCF
:101DF2002E083202031D032F2D083102031D032F6B
:101E02002C083002031C062F072F162F2C08B002B5
:101E12002D08031C2D0FB1022E08031C2E0FB20237
:101E22002F08031C2F0FB302351401300310AF0C1F
:101E3200AE0CAD0CAC0CFF3E031D172F0130B902E6
:101E4200031D242F252FEC2E3808AF003708AE00D3
:101E52003608AD003508AC00080083120313B20146
:101E6200AD1F342F352F3C2FAC09AD09AC0A031935
:101E7200AD0AB201B20AAF1F3F2F402F492FAE0960
:101E8200AF09AE0A0319AF0A0130B0003008B2063A
:101E9200B301B4012C082D040319502F512F882FA0
:101EA200B101B10A5F2F01300310AC0DAD0DFF3E41
:101EB200031D552F0130B0003008B107AD1F622F4E
:101EC200632F542F01300310B30DB40DFF3E031DD9
:101ED200642F2D082F02031D702F2C082E02031CC5
:101EE200732F742F7B2F2C08AE022D08031CAF0317
:101EF200AF02331401300310AD0CAC0CFF3E031DD6
:101F02007C2F0130B102031D872F882F632F3208E7
:101F120003198C2F8D2F922FB309B409B30A031919
:101F2200B40A3408AD003308AC000800831603136A
:101F32000612831203138612033086000A128A15D0
:101F42009C220A128A150A128A154C220A128A1532
:101F520002308312031386000A128A159C220A1287
:101F62008A150A128A154C220A128A150230831225
:101F7200031386000A128A159C220A128A150A1273
:101F82008A154C220A128A1508308312031386001E
:101F92000A128A159C220A128A150A128A154C22E2
:101FA2000A128A158312031386010A128A159C22C9
:101FB2000A128A150C308312031386000A128A153C
:101FC2009C220A128A150A128A154C220A128A15B2
:101FD2008312031386010A128A159C220A128A1599
:101FE20006308312031386000A128A159C220A12F3
:0E1FF2008A150A128A154C220A128A15080056
:02400E003A3F37
:00000001FF
